:020000040000FA
:100000000C9462000C948A000C948A000C948A0070
:100010000C948A000C948A000C948A000C948A0038
:100020000C948A000C948A000C948A000C948A0028
:100030000C948A000C948A000C948A000C948A0018
:100040000C9489050C948A000C9457050C94310586
:100050000C948A000C948A000C948A000C948A00F8
:100060000C948A000C948A000000000024002700F1
:100070002A0000000000250028002B0000000000DE
:1000800023002600290004040404040404040202DA
:100090000202020203030303030301020408102007
:1000A0004080010204081020010204081020000012
:1000B0000008000201000003040700000000000027
:1000C0000000D30511241FBECFEFD8E0DEBFCDBFA7
:1000D00012E0A0E0B1E0EEEDF7E102C005900D9274
:1000E000A630B107D9F723E0A6E0B2E001C01D9227
:1000F000A234B207E1F710E0C2E6D0E004C02197D5
:10010000FE010E94D80BC136D107C9F70E948B06A9
:100110000C94ED0B0C94000096E0899FD001112403
:10012000AD52BD4F90967C936E935F9791E0919600
:100130009C939197E0914003F091410390913F038C
:10014000992339F0309751F0811108C08091EF0266
:100150000994309719F05C968C91FACF0895CF925C
:10016000DF92EF92FF920F931F9396E0899FF00129
:100170001124ED52FD4F11A2278D30A12130310500
:1001800051F178F02230310509F451C023303105A6
:1001900009F452C01F910F91FF90EF90DF90CF9024
:1001A00008956623B9F361E070E00E948C002FB7D8
:1001B000F89480911A0290911B02A0911C02B091B8
:1001C0001D022FBF80932B0390932C03A0932D032C
:1001D000B0932E03DFCF9FB7F894C0901A02D0904F
:1001E0001B02E0901C02F0901D029FBF00912B03A8
:1001F00010912C0320912D0330912E03C01AD10AA7
:10020000E20AF30A00913D0310913E0330E020E042
:100210000C151D052E053F0550F462E070E01F919E
:100220000F91FF90EF90DF90CF900C948C006111B4
:10023000B1CF63E070E0F3CF70E060E0F0CFFC019D
:10024000538D448D252F30E0842F90E0821B930B3B
:10025000541710F0CF96089501970895FC01918DE1
:10026000828D981761F0A28DAE0FBF2FB11D5D96E4
:100270008C91928D9F5F9F73928F90E008958FEF86
:100280009FEF0895FC01918D828D981731F0828D3A
:10029000E80FF11D858D90E008958FEF9FEF089591
:1002A000FC01918D228D892F90E0805C9F4F821BF5
:1002B00091098F7399270895FC01A48DA80FB92F78
:1002C000B11DA35ABF4F2C91848D90E001968F737E
:1002D0009927848FA689B7892C93A089B1898C919D
:1002E000837080648C93938D848D981306C00288EC
:1002F000F389E02D80818F7D80830895EF92FF92B6
:100300000F931F93CF93DF93EC0181E0888F9B8D38
:100310008C8D98131AC0E889F989808185FF15C0F2
:100320009FB7F894EE89FF896083E889F989808115
:100330008370806480839FBF81E090E0DF91CF91E4
:100340001F910F91FF90EF900895F62E0B8D10E006
:100350000F5F1F4F0F731127E02E8C8D8E110CC075
:100360000FB607FCFACFE889F989808185FFF5CFC0
:10037000CE010E945C01F1CFEB8DEC0FFD2FF11D42
:10038000E35AFF4FF0829FB7F8940B8FEA89FB89FD
:1003900080818062CFCFCF93DF93EC01888D88235B
:1003A000B9F0AA89BB89E889F9898C9185FD03C0D8
:1003B000808186FD0DC00FB607FCF7CF8C9185FFBD
:1003C000F2CF808185FFEDCFCE010E945C01E9CFA5
:1003D000DF91CF9108958EE192E00E94500121E0DB
:1003E000892B09F420E0822F089580E090E0892B8A
:1003F00029F00E94EB0181110C9400000895AF9246
:10040000BF92CF92DF92EF92FF920F931F93CF9301
:10041000DF936C017B018B01040F151FEB015E0163
:10042000AE18BF08C017D10759F06991D601ED91F8
:10043000FC910190F081E02DC6010995892B79F797
:10044000C501DF91CF911F910F91FF90EF90DF9049
:10045000CF90BF90AF900895833081F028F4813021
:1004600099F08230A9F008958730A9F08830C9F05A
:100470008430B1F4809180008F7D03C08091800032
:100480008F7780938000089584B58F7784BD089519
:1004900084B58F7DFBCF8091B0008F778093B000C3
:1004A00008958091B0008F7DF9CFCF93DF93282FEF
:1004B00030E0F901E255FF4F8491F901E656FF4F14
:1004C000D491F901EA57FF4FC491CC23A1F08111D7
:1004D0000E942C02EC2FF0E0EE0FFF1FE458FF4FBC
:1004E000A591B491EC91ED2381E090E009F480E0D6
:1004F000DF91CF91089580E090E0FACF862F0C94A1
:1005000055021F93CF93DF93282F30E0F901E25576
:10051000FF4F8491F901E656FF4FD491F901EA5754
:10052000FF4FC491CC23A9F0162F81110E942C02F9
:10053000EC2FF0E0EE0FFF1FEE58FF4FA591B491A6
:100540008FB7F894EC91111108C0D095DE23DC939D
:100550008FBFDF91CF911F910895DE2BF8CF862FAB
:10056000642F0C948102CF93DF9390E0FC01E65658
:10057000FF4F24918A579F4FFC0184918823C9F033
:1005800090E0880F991FFC01E859FF4FA591B491A5
:10059000FC01EE58FF4FC591D49161110DC09FB77A
:1005A000F8948C91209582238C938881282328832A
:1005B0009FBFDF91CF910895623051F49FB7F894B7
:1005C0003C91822F809583238C93E8812E2BEFCF53
:1005D0008FB7F894EC912E2B2C938FBFEACF862FF8
:1005E000642F0C94B3023FB7F89480910702909166
:1005F0000802A0910902B0910A0226B5A89B05C085
:100600002F3F19F00196A11DB11D3FBFBA2FA92F91
:10061000982F8827BC01CD01620F711D811D911D8E
:1006200042E0660F771F881F991F4A95D1F70895FA
:100630008F929F92AF92BF92CF92DF92EF92FF92F2
:100640004B015C010E94F3026B017C010E94F302EA
:100650006C197D098E099F09683E734081059105DB
:10066000A8F321E0821A9108A108B10888EEC80E0B
:1006700083E0D81EE11CF11C81149104A104B10493
:1006800029F7FF90EF90DF90CF90BF90AF909F90B1
:100690008F900895089590E080E00895CF93DF93C0
:1006A000EC0160E08E810E94810261E08E810E94F7
:1006B000810260E08E810E9481028BE891E00197C7
:1006C000F1F7DF91CF910895CF92DF92EF92FF92F1
:1006D0000F931F93CF93DF936C017C0187E0E80EAB
:1006E000F11CD0E0C0E0062F10E0B8010C2E02C0D3
:1006F000759567950A94E2F76170F70181917F0122
:100700000E9481022196C430D10579F7C601DF919C
:10071000CF911F910F91FF90EF90DF90CF900C94AD
:100720004E03CF92DF92EF92FF920F931F93CF93DE
:10073000DF93EC01F62E642F8C810E9481028D8163
:100740008F3F19F060E00E9481020F2D10E08F852D
:1007500084FF25C06E0187E0C80ED11CF12CE12C6E
:10076000B8010E2C02C0759567950A94E2F7617086
:10077000F60181916F010E948102FFEFEF1AFF0ADB
:1007800088E0E816F10461F7CE01DF91CF911F9167
:100790000F91FF90EF90DF90CF900C944E03B80133
:1007A00084E0759567958A95E1F7CE010E94640310
:1007B0006F2DCE01DF91CF911F910F91FF90EF90A0
:1007C000DF90CF900C94640340E0682F8BEB92E0B5
:1007D0000C94910381E00E94E4038BE39FE1019775
:1007E000F1F70895CF93DF93823029F49091CA02F4
:1007F00098609093CA028093CE021092CF0280E458
:100800008093D00280E18093D10280E58093D20270
:1008100061E08091BF020E94B3028091C0028F3FCD
:1008200019F061E00E94B30261E08091C1020E9470
:10083000B302CBEBD2E09E012B5B32408091CA0227
:1008400084FD0BC084E090E021962817390744F41A
:1008500061E08E810E94B302EECF88E090E0F4CF99
:100860008BE39DE00197F1F760E08091BF020E9469
:10087000810260E08091C1020E9481028091C002E9
:100880008F3F19F060E00E9481028091CA0284FDCE
:1008900034C063E08BEB92E00E946403CBE4D6E4C7
:1008A000CE010197F1F763E08BEB92E00E946403C5
:1008B0002197F1F763E08BEB92E00E94640383E5FC
:1008C00092E00197F1F762E08BEB92E00E94640303
:1008D0008091CA0280620E94E40384E08093CB028C
:1008E0008CE00E94E4030E94EA0382E08093CC0241
:1008F00086E0DF91CF910C94E40380620E94E403D0
:100900008BE496E40197F1F78091CA0280620E941D
:10091000E40383E592E00197F1F78091CA028062D7
:100920000E94E403D5CF41E00E94910381E090E072
:100930000895FB0101900020E9F73197AF01461BB4
:10094000570BDC01ED91FC910280F381E02D0994BD
:10095000CF93DF93BC018EE192E00E949904EC01F9
:1009600060E471E08EE192E00E9499048C0F9D1F7B
:10097000DF91CF910895CF92DF92EF92FF920F9384
:100980001F93CF93DF93CDB7DEB7A1970FB6F8943F
:10099000DEBF0FBECDBF6B017C01F7FE3EC041E064
:1009A0006DE28BEB92E00E94910322273327A9018D
:1009B0002C193D094E095F0919A28E010F5D1F4FC9
:1009C0009AE0C92ED12CE12CF12CCA01B901A70162
:1009D00096010E948C0B605DF80162938F012115D6
:1009E00031054105510589F790E080E0309729F005
:1009F000BF018BEB92E00E9499040196A1960FB67D
:100A0000F894DEBF0FBECDBFDF91CF911F910F9144
:100A1000FF90EF90DF90CF900895AC019B0119A259
:100A20008E010F5D1F4F8AE0C82ED12CE12CF12CD6
:100A3000CA01B901A70196010E948C0B605DF80103
:100A400062938F01211531054105510589F790E029
:100A500080E0309799F2BF018BEB92E00E949904FD
:100A6000CDCF1F920F920FB60F9211242F933F9369
:100A70004F935F936F937F938F939F93AF93BF93A6
:100A8000EF93FF938EE192E00E945C01FF91EF9162
:100A9000BF91AF919F918F917F916F915F914F9196
:100AA0003F912F910F900FBE0F901F9018951F929E
:100AB0000F920FB60F9211242F938F939F93EF9362
:100AC000FF93E0912E02F0912F028081E091340299
:100AD000F091350282FD1BC09081809137028F5FBB
:100AE0008F7320913802821741F0E0913702F0E0D5
:100AF000E25EFD4F958F80933702FF91EF919F91BA
:100B00008F912F910F900FBE0F901F90189580819D
:100B1000F4CF1F920F920FB60F9211242F933F9391
:100B20008F939F93AF93BF9380911A0290911B0272
:100B3000A0911C02B0911D023091060223E0230F08
:100B40002D3758F50196A11DB11D20930602809303
:100B50001A0290931B02A0931C02B0931D02809175
:100B6000070290910802A0910902B0910A02019631
:100B7000A11DB11D8093070290930802A093090262
:100B8000B0930A02BF91AF919F918F913F912F91A6
:100B90000F900FBE0F901F90189526E8230F029616
:100BA000A11DB11DD2CF109221021092200288EE19
:100BB00093E0A0E0B0E08093220290932302A09300
:100BC0002402B09325028CE191E090931F02809360
:100BD0001E0285EC90E090932B0280932A0284EC15
:100BE00090E090932D0280932C0280EC90E0909303
:100BF0002F0280932E0281EC90E09093310280933B
:100C0000300282EC90E0909333028093320286ECC3
:100C100090E0909335028093340210923702109244
:100C200038021092390210923A021092D5021092B4
:100C3000D9021092D8021092DA028AE391E09093DE
:100C4000D4028093D302EFEEF2E01082148213827A
:100C50001582369683E0EB32F807B9F784E091E02D
:100C6000909336038093350380E091E090933803AE
:100C70008093370384E08093390380933A0388E0BC
:100C800091E090933403809333038AE090E0909353
:100C90003C0380933B0384EF91E090933E03809369
:100CA0003D03109241031092400310922F031092C3
:100CB0003003109231031092320310923F031092CE
:100CC000BE021092BD028EE291E09093BC0280932E
:100CD000BB0288E08093BF028FEF8093C00289E05F
:100CE0008093C1028AE08093C2028BE08093C302AA
:100CF0008CE08093C4028DE08093C5021092C602FE
:100D00001092C7021092C8021092C9021092CA0231
:100D100081E00C94F203789484B5826084BD84B53C
:100D2000816084BD85B5826085BD85B5816085BDE6
:100D300080916E00816080936E001092810080919E
:100D40008100826080938100809181008160809326
:100D50008100809180008160809380008091B1004B
:100D600084608093B1008091B00081608093B00076
:100D700080917A00846080937A0080917A0082600A
:100D800080937A0080917A00816080937A008091CC
:100D90007A00806880937A001092C10082E00E94FD
:100DA000F20363E471E08BEB92E00E949904E0911E
:100DB000CE02E23008F059C0E150F0E0E554FD4FBA
:100DC000848980680E94E40362E571E08BEB92E025
:100DD0000E94990460ED77E080E090E00E941803A3
:100DE0000E94EA0365E0462E512C612C712C2224CE
:100DF0002A94322C50E0852E50E0952E81E080938D
:100E00003F038FB7F89440911A0250911B026091F2
:100E10001C0270911D028FBF80912F0390913003AF
:100E2000A0913103B0913203481B590B6A0B7B0B25
:100E300080913B0390913C03B0E0A0E084179507BC
:100E4000A607B70708F098C1C0E080913903C8171A
:100E500070F4E0913503F0913603EC0FF11D62E080
:100E600080810E94B302CF5FF0CFE1E0A6CFB12C2A
:100E700080913A03B81608F061C00B2D10E0E091A4
:100E80003703F0913803E00FF11F61E080810E9489
:100E9000B302E0913703F0913803E00FF11F60E0F7
:100EA00080810E94810281E090E0A0E0B0E00B2C04
:100EB00004C0880F991FAA1FBB1F0A94D2F76C01A8
:100EC0007C01E094F094A12C80913903A816F8F4E9
:100ED000CA2DD0E0E0913503F0913603EC0FFD1FF1
:100EE00080810E9455022496CC0FDD1FCD52DD4F2C
:100EF000892B41F4888199818C299D299983888344
:100F0000A394E2CF888199818E219F21F7CFE09130
:100F10003703F0913803E00FF11F61E080810E94F8
:100F200081028091370390913803080F191F60E008
:100F3000D8018C910E94B302B3949ACF23EDC22EB4
:100F400022E0D22EE6018F8D98A1892B21F41C8EF0
:100F50003E8E2D8E19A22696EFE0F3E0EC17FD07EA
:100F600091F710E096E0B92E80913903181708F038
:100F700052C000E0E12EF12CEE0CFF1C970125522F
:100F80003D4F790120913A03021708F042C0D70182
:100F90006D917C91002E02C0769567950A94E2F7D8
:100FA000129F90011124200F311DE3EDF2E080E04B
:100FB000458D568D2417350709F49CC38F5F3696EF
:100FC0008A30B1F760FF23C0E3EDF2E090E080E00B
:100FD000448D411117C0E0913303F0913403E20FC7
:100FE000F31F6081B89EF001B99EF00D1124ED52FF
:100FF000FD4F648F368F258F10A2178E61E00E94FF
:10100000AF0005C0019636968A30910509F70F5F4B
:10101000B9CF1F5FA9CF80E0F60191A19111892F6F
:10102000F6E0CF0ED11CCC15DD05B1F79FB7F894D3
:1010300040911A0250911B0260911C0270911D0296
:101040009FBF40932F0350933003609331037093FD
:101050003203882309F490C08091F402882309F4B4
:101060008BC08091F2029091F302019709F084C045
:10107000C091EF02C0931902C11183C0C090140245
:10108000D0901502E0901602F0901702809118029D
:101090008823C9F0809113028B3209F0E7C2809156
:1010A0000F0290911002A0911102B09112028C0DCA
:1010B0009D1DAE1DBF1D80930B0290930C02A0934B
:1010C0000D02B0930E02E1E08091CE028111E0E0CA
:1010D000E195F0E0E554FD4F848980680E94E403C7
:1010E000C701B6010E94BB0441E0609113028BEB83
:1010F00092E00E94910360910F0270911002809122
:101100001102909112020E94BB0480911802882360
:1011100081F063E072E08BEB92E00E9499046091B1
:101120000B0270910C0280910D0290910E020E94B0
:10113000BB04E091CE02E23008F0DAC2E150F0E008
:10114000E554FD4F848980680E94E40360910B029E
:1011500070910C0280910D0290910E020E94BB04CE
:101160008114910409F44ACE0E94EB01882309F40A
:101170003ECE0E9400003BCE10923F031092190217
:101180007DCF0E94EA03CA32F1F481E691E00E9429
:10119000A80410920F0210921002109211021092E5
:1011A000120210921402109215021092160210925E
:1011B000170210920B0210920C0210920D02109264
:1011C0000E0210921802809119028133F1F48FE619
:1011D00091E00E94A80420910B0230910C024091F2
:1011E0000D0250910E02211531054105510509F0FE
:1011F000A4C121E030E040E050E020930B023093A6
:101200000C0240930D0250930E0280911902843318
:10121000F1F488E791E00E94A80420910B0230913C
:101220000C0240910D0250910E022115310541052D
:10123000510509F093C184E090E0A0E0B0E0809314
:101240000B0290930C02A0930D02B0930E028091BA
:1012500019028733F1F481E891E00E94A8042091FB
:101260000B0230910C0240910D0250910E0221159B
:1012700031054105510509F082C127E030E040E029
:1012800050E020930B0230930C0240930D025093D8
:101290000E02809119028033E9F48AE891E00E94FD
:1012A000A80420910B0230910C0240910D02509144
:1012B0000E02211531054105510561F0AAE0B0E0AB
:1012C0000E94CD0B60930B0270930C0280930D0271
:1012D00090930E02809119028233F1F483E991E038
:1012E0000E94A80420910B0230910C0240910D0243
:1012F00050910E02211531054105510509F050C1EB
:1013000082E090E0A0E0B0E080930B0290930C02AA
:10131000A0930D02B0930E02809119028533D1F48F
:101320008CE991E00E94A80420910B0230910C02FC
:1013300040910D0250910E022115310541055105D4
:1013400009F03FC140920B0250920C0260920D02D4
:1013500070920E02809119028833F1F485EA91E0CF
:101360000E94A80420910B0230910C0240910D02C2
:1013700050910E02211531054105510509F032C188
:1013800028E030E040E050E020930B0230930C0264
:1013900040930D0250930E02809119028332B9F4EA
:1013A0008EEA91E00E94A80480910B0290910C02B9
:1013B000A0910D02B0910E0280930F029093100243
:1013C000A0931102B093120281E0809318028091E1
:1013D00019028333F1F48BEB91E00E94A804209171
:1013E0000B0230910C0240910D0250910E0221151A
:1013F00031054105510509F006C183E090E0A0E008
:10140000B0E080930B0290930C02A0930D02B09376
:101410000E02809119028633F1F484EC91E00E946F
:10142000A80420910B0230910C0240910D025091C2
:101430000E02211531054105510509F0F5C026E0E0
:1014400030E040E050E020930B0230930C024093D8
:101450000D0250930E02809119028933F1F48DEC44
:1014600091E00E94A80420910B0230910C0240915F
:101470000D0250910E02211531054105510509F06B
:10148000E4C089E090E0A0E0B0E080930B0290938C
:101490000C02A0930D02B0930E02809119029FEBF3
:1014A000980F943008F0EACD40910B0250910C0255
:1014B00060910D0270910E02409314025093150238
:1014C000609316027093170210920B0210920C0296
:1014D00010920D0210920E02813439F486ED91E0E3
:1014E0000E94A8048BE28093130280911902823437
:1014F00039F48FED91E00E94A8048DE280931302ED
:1015000080911902833439F48BEE91E00E94A80493
:101510008AE28093130280911902843439F48AEFAD
:1015200091E00E94A8048FE28093130264E670E0C9
:1015300080E090E00E941803A1CDAAE0B0E00E94F4
:10154000CD0B6F5F7F4F8F4F9F4F60930B02709358
:101550000C0280930D0290930E0257CEAAE0B0E0E9
:101560000E94CD0B6C5F7F4F8F4F9F4F60930B029C
:1015700070930C0280930D0290930E0268CEAAE045
:10158000B0E00E94CD0B695F7F4F8F4F9F4F6093FC
:101590000B0270930C0280930D0290930E0279CE91
:1015A000AAE0B0E00E94CD0B6E5F7F4F8F4F9F4F40
:1015B00060930B0270930C0280930D0290930E02C5
:1015C000ABCEAAE0B0E00E94CD0B6B5F7F4F8F4F98
:1015D0009F4F60930B0270930C0280930D029093C7
:1015E0000E02B8CEAAE0B0E00E94CD0B685F7F4F3C
:1015F0008F4F9F4F60930B0270930C0280930D02EC
:1016000090930E02C9CEAAE0B0E00E94CD0B6D5FB0
:101610007F4F8F4F9F4F60930B0270930C0280930C
:101620000D0290930E02F5CEAAE0B0E00E94CD0B21
:101630006A5F7F4F8F4F9F4F60930B0270930C0236
:1016400080930D0290930E0206CFAAE0B0E00E94B4
:10165000CD0B675F7F4F8F4F9F4F60930B0270934F
:101660000C0280930D0290930E0217CF8D3289F4F5
:1016700080910F0290911002A0911102B09112027C
:10168000A7019601281B390B4A0B5B0BDA01C90134
:1016900012CD8A32A9F420910F02309110024091AC
:1016A000110250911202C701B6010E947C0B609397
:1016B0000B0270930C0280930D0290930E0203CDE7
:1016C0008F3209F000CD20910F023091100240912D
:1016D000110250911202C701B6010E94AE0B209375
:1016E0000B0230930C0240930D0250930E02EBCC90
:1016F000E1E025CD617083CCDB018F939F930E9445
:10170000CD0BBF91AF91A29F800D911DA39F900D16
:10171000B29F900D11240895A1E21A2EAA1BBB1BA3
:10172000FD010DC0AA1FBB1FEE1FFF1FA217B307AD
:10173000E407F50720F0A21BB30BE40BF50B661FC3
:10174000771F881F991F1A9469F760957095809587
:1017500090959B01AC01BD01CF010895052E97FB2B
:101760001EF400940E94C50B57FD07D00E948C0BFD
:1017700007FC03D04EF40C94C50B50954095309562
:1017800021953F4F4F4F5F4F0895909580957095ED
:1017900061957F4F8F4F9F4F08950E94DE0BA59F4D
:1017A000900DB49F900DA49F800D911D112408955C
:1017B000EE0FFF1F0590F491E02D0994A29FB00158
:1017C000B39FC001A39F700D811D1124911DB29F75
:1017D000700D811D1124911D0895F894FFCF04050B
:1017E00006070001020337383944343536433132B5
:1017F00033422A302341000000007E01FF011F0117
:10180000CB0150012E014201000000009304FF01B2
:101810004B034A0300000000EF02AF027E020D0AF4
:10182000004449592043616C63756C61746F7200A8
:101830002D43697263756974446967657374004206
:101840007574746F6E2043616E63656C00427574CD
:10185000746F6E203100427574746F6E20340042D4
:101860007574746F6E203700427574746F6E20301B
:1018700000427574746F6E203200427574746F6E1E
:10188000203500427574746F6E2038004275747490
:101890006F6E20457175616C00427574746F6E20B7
:1018A0003300427574746F6E203600427574746F25
:1018B0006E2039004164646974696F6E005375620B
:1018C0007472616374696F6E004D756C7469706CCD
:1018D00069636174696F6E004465766573696F6EE4
:0418E00000203D00A7
:107E0000112484B714BE81FFF0D085E080938100F7
:107E100082E08093C00088E18093C10086E0809377
:107E2000C20080E18093C4008EE0C9D0259A86E02C
:107E300020E33CEF91E0309385002093840096BBD3
:107E4000B09BFECF1D9AA8958150A9F7CC24DD24C4
:107E500088248394B5E0AB2EA1E19A2EF3E0BF2EE7
:107E6000A2D0813461F49FD0082FAFD0023811F036
:107E7000013811F484E001C083E08DD089C08234E0
:107E800011F484E103C0853419F485E0A6D080C0E4
:107E9000853579F488D0E82EFF2485D0082F10E0AE
:107EA000102F00270E291F29000F111F8ED06801E7
:107EB0006FC0863521F484E090D080E0DECF843638
:107EC00009F040C070D06FD0082F6DD080E0C81688
:107ED00080E7D80618F4F601B7BEE895C0E0D1E017
:107EE00062D089930C17E1F7F0E0CF16F0E7DF06D8
:107EF00018F0F601B7BEE89568D007B600FCFDCFD4
:107F0000A601A0E0B1E02C9130E011968C91119780
:107F100090E0982F8827822B932B1296FA010C0160
:107F200087BEE89511244E5F5F4FF1E0A038BF0790
:107F300051F7F601A7BEE89507B600FCFDCF97BE46
:107F4000E89526C08437B1F42ED02DD0F82E2BD052
:107F50003CD0F601EF2C8F010F5F1F4F84911BD097
:107F6000EA94F801C1F70894C11CD11CFA94CF0C13
:107F7000D11C0EC0853739F428D08EE10CD085E9AC
:107F80000AD08FE07ACF813511F488E018D01DD067
:107F900080E101D065CF982F8091C00085FFFCCF94
:107FA0009093C60008958091C00087FFFCCF809118
:107FB000C00084FD01C0A8958091C6000895E0E648
:107FC000F0E098E1908380830895EDDF803219F02E
:107FD00088E0F5DFFFCF84E1DECF1F93182FE3DFCA
:107FE0001150E9F7F2DF1F91089580E0E8DFEE27F6
:047FF000FF270994CA
:027FFE00040479
:00000001FF
