:020000040000FA
:100000000C945D000C9485000C9485000C94850084
:100010000C9485000C9485000C9485000C9485004C
:100020000C9485000C9485000C9485000C9485003C
:100030000C9485000C9485000C9485000C9485002C
:100040000C942B030C9485000C9485000C94850073
:100050000C9485000C9485000C9485000C9485000C
:100060000C9485000C94850000000008000201003B
:100070000003040700000000000000000000000072
:10008000250028002B0000000000240027002A0083
:10009000040404040404040402020202020203032E
:1000A0000303030301020408102040800102040836
:1000B0001020010204081020240411241FBECFEFD9
:1000C000D8E0DEBFCDBF11E0A0E0B1E0EAEDF8E09E
:1000D00002C005900D92AC30B107D9F721E0ACE039
:1000E000B1E001C01D92AD32B207E1F710E0CDE5FD
:1000F000D0E004C02197FE010E946504CC35D107F1
:10010000C9F70E9475030C946B040C94000090E0F6
:10011000FC01EC55FF4F249180579F4FFC018491C7
:10012000882399F090E0880F991FFC01EA57FF4F50
:10013000A591B491FC01E458FF4F859194918FB73C
:10014000F894EC91E22BEC938FBF0895AF92BF929D
:10015000CF92DF92EF92FF920F931F93CF93DF9393
:100160006C017B018B01040F151FEB015E01AE18C2
:10017000BF08C017D10759F06991D601ED91FC91E4
:100180000190F081E02DC6010995892B79F7C50111
:10019000DF91CF911F910F91FF90EF90DF90CF9063
:1001A000BF90AF90089590E0FC01E859FF4F249173
:1001B000FC01EC55FF4F3491FC01E057FF4FE491F7
:1001C000EE23C9F0222339F0233001F1A8F42130C5
:1001D00019F1223029F1F0E0EE0FFF1FE458FF4F34
:1001E000A591B4918FB7F894EC91611126C0309528
:1001F0003E233C938FBF08952730A9F02830C9F0E3
:10020000243049F7809180008F7D03C08091800069
:100210008F7780938000DFCF84B58F7784BDDBCF6D
:1002200084B58F7DFBCF8091B0008F778093B00035
:10023000D2CF8091B0008F7DF9CF3E2BDACF3FB780
:10024000F8948091110190911201A0911301B09145
:10025000140126B5A89B05C02F3F19F00196A11DDA
:10026000B11D3FBFBA2FA92F982F8827BC01CD0100
:10027000620F711D811D911D42E0660F771F881F5F
:10028000991F4A95D1F708958F929F92AF92BF928E
:10029000CF92DF92EF92FF920E941F014B015C010F
:1002A00084EFC82EDD24D394E12CF12C0E941F0191
:1002B000681979098A099B09683E7340810591058F
:1002C000A8F321E0C21AD108E108F10888EE880EEF
:1002D00083E0981EA11CB11CC114D104E104F104F7
:1002E00029F7FF90EF90DF90CF90BF90AF909F9055
:1002F0008F900895089590E080E008958F929F92E6
:10030000AF92BF920F931F93CF93DF93CDB7DEB71A
:10031000A1970FB6F894DEBF0FBECDBF19A2423031
:1003200008F44AE08E010F5D1F4F842E912CB12CF2
:10033000A12CA50194010E944304E62FB901CA0132
:10034000EA3044F5E05DD801EE938D01232B242B98
:10035000252B79F790E080E0109769F0FD0101907E
:100360000020E9F73197AF014A1B5B0BBD0185E126
:1003700091E00E94A600A1960FB6F894DEBF0FBED2
:10038000CDBFDF91CF911F910F91BF90AF909F9004
:100390008F900895E95CD7CFCF93DF93EC0160E0B5
:1003A0008E810E94D30061E08E810E94D30060E0C4
:1003B0008E810E94D3008BE891E00197F1F7DF91E5
:1003C000CF910895CF92DF92EF92FF920F931F93F8
:1003D000CF93DF936C017C0187E0E80EF11CD0E045
:1003E000C0E0062F10E0B8010C2E02C0759567958D
:1003F0000A94E2F76170F70181917F010E94D300B6
:100400002196C430D10579F7C601DF91CF911F91B4
:100410000F91FF90EF90DF90CF900C94CC01CF9292
:10042000DF92EF92FF920F931F93CF93DF93EC0134
:10043000F62E642F8C810E94D3008D818F3F19F09E
:1004400060E00E94D3000F2D10E08F8584FF25C04F
:100450006E0187E0C80ED11CF12CE12CB8010E2CE6
:1004600002C0759567950A94E2F76170F601819173
:100470006F010E94D300FFEFEF1AFF0A88E0E81631
:10048000F10461F7CE01DF91CF911F910F91FF90A1
:10049000EF90DF90CF900C94CC01B80184E075957B
:1004A00067958A95E1F7CE010E94E2016F2DCE019A
:1004B000DF91CF911F910F91FF90EF90DF90CF9040
:1004C0000C94E20140E0682F85E191E00C940F026A
:1004D000CF93DF93623029F4909124019860909338
:1004E0002401609328011092290190E490932A013D
:1004F00080932B01805C80932C01809119010E94D4
:10050000870080911A018F3F11F00E94870080912F
:100510001B010E948700C5E1D1E09E0125513140B9
:100520008091240184FD0AC084E090E02196281780
:1005300039073CF48E810E948700EFCF88E090E07D
:10054000F5CF8BE39DE00197F1F760E08091190111
:100550000E94D30060E080911B010E94D300809133
:100560001A018F3F19F060E00E94D30080912401AE
:1005700084FD39C063E085E191E00E94E201CBE4B3
:10058000D6E4CE010197F1F763E085E191E00E94A6
:10059000E2012197F1F763E085E191E00E94E20139
:1005A00083E592E00197F1F762E085E191E00E9436
:1005B000E2018091240180620E94620284E08093C3
:1005C00025018CE00E94620281E00E9462028BE3BE
:1005D0009FE10197F1F782E08093260186E0DF91A9
:1005E000CF910C94620280620E9462028BE496E4D6
:1005F0000197F1F78091240180620E94620283E5F5
:1006000092E00197F1F78091240180620E946202DA
:10061000D0CF41E00E940F0281E090E00895CF9298
:10062000DF92EF92FF926B017C0141E06DE285E188
:1006300091E00E940F0266277727CB016C197D0994
:100640008E099F094AE00E947E010196FF90EF907B
:10065000DF90CF9008951F920F920FB60F92112442
:100660002F933F938F939F93AF93BF9380910D01EF
:1006700090910E01A0910F01B091100130910C01E9
:1006800023E0230F2D3758F50196A11DB11D2093AE
:100690000C0180930D0190930E01A0930F01B09374
:1006A00010018091110190911201A0911301B0915C
:1006B00014010196A11DB11D8093110190931201A7
:1006C000A0931301B0931401BF91AF919F918F91AB
:1006D0003F912F910F900FBE0F901F90189526E815
:1006E000230F0296A11DB11DD2CF789484B58260EC
:1006F00084BD84B5816084BD85B5826085BD85B5C6
:10070000816085BD80916E00816080936E00109243
:1007100081008091810082608093810080918100BE
:10072000816080938100809180008160809380004F
:100730008091B10084608093B1008091B0008160AD
:100740008093B00080917A00846080937A008091D9
:100750007A00826080937A0080917A008160809331
:100760007A0080917A00806880937A001092C100AC
:1007700062E084E10E946802CBE3DFE100E010E088
:10078000E1E0809128018111E0E0E195F0E0EB5E8D
:10079000FE4F848980680E946202C12CD12C7601B0
:1007A0004AE0C701B6010E947E010E9444018FEF1A
:1007B000C81AD80AE80AF80A8AE0C816D104E1047F
:1007C000F10471F7E0912801E230E0F5E150F0E04A
:1007D000EB5EFE4F8489805F80680E946202809198
:1007E0002601982F91609093260185600E946202F5
:1007F000C12CD12C76014AE0C701B6010E947E01CE
:100800000E9444018FEFC81AD80AE80AF80A8AE061
:10081000C816D104E104F10471F7809126018E7F9E
:100820008093260184600E94620281E00E9462023D
:10083000CE010197F1F70115110509F4A1CF0E942E
:1008400000009ECFE1E0C3CFE5E1F1E01382128228
:1008500084E091E0918380838CE084838FEF8583B3
:100860008BE0868385E0878384E0808783E08187CF
:1008700082E082871386148615861686178661E0C5
:1008800080E10C946802A1E21A2EAA1BBB1BFD0199
:100890000DC0AA1FBB1FEE1FFF1FA217B307E4075F
:1008A000F50720F0A21BB30BE40BF50B661F771FB7
:1008B000881F991F1A9469F7609570958095909597
:1008C0009B01AC01BD01CF010895EE0FFF1F059004
:1008D000F491E02D0994F894FFCF00000000090383
:0608E000A6007B017A0175
:107E0000112484B714BE81FFF0D085E080938100F7
:107E100082E08093C00088E18093C10086E0809377
:107E2000C20080E18093C4008EE0C9D0259A86E02C
:107E300020E33CEF91E0309385002093840096BBD3
:107E4000B09BFECF1D9AA8958150A9F7CC24DD24C4
:107E500088248394B5E0AB2EA1E19A2EF3E0BF2EE7
:107E6000A2D0813461F49FD0082FAFD0023811F036
:107E7000013811F484E001C083E08DD089C08234E0
:107E800011F484E103C0853419F485E0A6D080C0E4
:107E9000853579F488D0E82EFF2485D0082F10E0AE
:107EA000102F00270E291F29000F111F8ED06801E7
:107EB0006FC0863521F484E090D080E0DECF843638
:107EC00009F040C070D06FD0082F6DD080E0C81688
:107ED00080E7D80618F4F601B7BEE895C0E0D1E017
:107EE00062D089930C17E1F7F0E0CF16F0E7DF06D8
:107EF00018F0F601B7BEE89568D007B600FCFDCFD4
:107F0000A601A0E0B1E02C9130E011968C91119780
:107F100090E0982F8827822B932B1296FA010C0160
:107F200087BEE89511244E5F5F4FF1E0A038BF0790
:107F300051F7F601A7BEE89507B600FCFDCF97BE46
:107F4000E89526C08437B1F42ED02DD0F82E2BD052
:107F50003CD0F601EF2C8F010F5F1F4F84911BD097
:107F6000EA94F801C1F70894C11CD11CFA94CF0C13
:107F7000D11C0EC0853739F428D08EE10CD085E9AC
:107F80000AD08FE07ACF813511F488E018D01DD067
:107F900080E101D065CF982F8091C00085FFFCCF94
:107FA0009093C60008958091C00087FFFCCF809118
:107FB000C00084FD01C0A8958091C6000895E0E648
:107FC000F0E098E1908380830895EDDF803219F02E
:107FD00088E0F5DFFFCF84E1DECF1F93182FE3DFCA
:107FE0001150E9F7F2DF1F91089580E0E8DFEE27F6
:047FF000FF270994CA
:027FFE00040479
:00000001FF
