:020000040000FA
:100000000C9462000C948A000C948A000C948A0070
:100010000C948A000C948A000C948A000C948A0038
:100020000C948A000C948A000C948A000C948A0028
:100030000C948A000C948A000C948A000C948A0018
:100040000C940B020C948A000C948A000C948A0085
:100050000C948A000C948A000C948A000C948A00F8
:100060000C948A000C948A000000000024002700F1
:100070002A0000000000250028002B0000000000DE
:1000800023002600290004040404040404040202DA
:100090000202020203030303030301020408102007
:1000A0004080010204081020010204081020000012
:1000B0000008000201000003040700000000000027
:1000C00000005E0411241FBECFEFD8E0DEBFCDBF1D
:1000D00011E0A0E0B1E0E6EBF9E002C005900D927E
:1000E000A232B107D9F721E0A2E2B1E001C01D922E
:1000F000AC3AB207E1F710E0C2E6D0E004C02197C5
:10010000FE010E94D304C136D107C9F70E945502EF
:100110000C94D9040C94000096E0899FD00111241E
:10012000A35CBE4F90967C936E935F9791E09196FF
:100130009C939197E091AA01F091AB019091A90154
:10014000992339F0309751F0811108C080915901FD
:100150000994309719F05C968C91FACF0895CF925C
:10016000DF92EF92FF920F931F9396E0899FF00129
:100170001124E35CFE4F11A2278D30A121303105FF
:1001800051F178F02230310509F451C023303105A6
:1001900009F452C01F910F91FF90EF90DF90CF9024
:1001A00008956623B9F361E070E00E948C002FB7D8
:1001B000F8948091390190913A01A0913B01B0915E
:1001C0003C012FBF8093950190939601A0939701D6
:1001D000B0939801DFCF9FB7F894C0903901D090C9
:1001E0003A01E0903B01F0903C019FBF00919501E6
:1001F000109196012091970130919801C01AD10A6F
:10020000E20AF30A0091A7011091A80130E020E072
:100210000C151D052E053F0550F462E070E01F919E
:100220000F91FF90EF90DF90CF900C948C006111B4
:10023000B1CF63E070E0F3CF70E060E0F0CF8330E7
:1002400081F028F4813099F08230A9F00895873048
:10025000A9F08830C9F08430B1F4809180008F7D9E
:1002600003C0809180008F7780938000089584B5CB
:100270008F7784BD089584B58F7DFBCF8091B000CA
:100280008F778093B00008958091B0008F7DF9CF73
:10029000CF93DF93282F30E0F901E255FF4F84918F
:1002A000F901E656FF4FD491F901EA57FF4FC49187
:1002B000CC23A1F081110E941F01EC2FF0E0EE0F82
:1002C000FF1FE458FF4FA591B491EC91ED2381E01D
:1002D00090E009F480E0DF91CF91089580E090E014
:1002E000FACF862F0C9448011F93CF93DF93282FCA
:1002F00030E0F901E255FF4F8491F901E656FF4FD6
:10030000D491F901EA57FF4FC491CC23A9F0162FDD
:1003100081110E941F01EC2FF0E0EE0FFF1FEE583D
:10032000FF4FA591B4918FB7F894EC91111108C0CB
:10033000D095DE23DC938FBFDF91CF911F9108957D
:10034000DE2BF8CF862F642F0C947401CF93DF93AC
:1003500090E0FC01E656FF4F24918A579F4FFC0125
:1003600084918823C9F090E0880F991FFC01E85917
:10037000FF4FA591B491FC01EE58FF4FC591D49168
:1003800061110DC09FB7F8948C91209582238C93B6
:100390008881282328839FBFDF91CF910895623001
:1003A00051F49FB7F8943C91822F809583238C93CE
:1003B000E8812E2BEFCF8FB7F894EC912E2B2C9356
:1003C0008FBFEACF862F642F0C94A6013FB7F89415
:1003D0008091230190912401A0912501B0912601E3
:1003E00026B5A89B05C02F3F19F00196A11DB11D90
:1003F0003FBFBA2FA92F982F8827BC01CD01620FCC
:10040000711D811D911D42E0660F771F881F991F86
:100410004A95D1F708951F920F920FB60F921124AB
:100420002F933F938F939F93AF93BF938091390105
:1004300090913A01A0913B01B0913C013091220191
:1004400023E0230F2D3758F50196A11DB11D2093F0
:1004500022018093390190933A01A0933B01B0931C
:100460003C018091230190912401A0912501B0913C
:1004700026010196A11DB11D8093230190932401B3
:10048000A0932501B0932601BF91AF919F918F91C9
:100490003F912F910F900FBE0F901F90189526E857
:1004A000230F0296A11DB11DD2CF789484B582602E
:1004B00084BD84B5816084BD85B5826085BD85B508
:1004C000816085BD80916E00816080936E00109286
:1004D0008100809181008260809381008091810001
:1004E0008160809381008091800081608093800092
:1004F0008091B10084608093B1008091B0008160F0
:100500008093B00080917A00846080937A0080911B
:100510007A00826080937A0080917A008160809373
:100520007A0080917A00806880937A001092C100EE
:1005300009E311E0C9E2D1E061E088810E94A601EF
:1005400061E08A810E94A60124960C171D07A1F77D
:10055000812C912C5401839470E0672E70E0772EEB
:1005600021E02093A9018FB7F8944091390150916F
:100570003A0160913B0170913C018FBF80919901DC
:1005800090919A01A0919B01B0919C01481B590B3D
:100590006A0B7B0B8091A5019091A601B0E0A0E0D1
:1005A00084179507A607B70708F00CC1C0E0809133
:1005B000A301C81760F4E0919F01F091A001EC0F36
:1005C000F11D62E080810E94A601CF5FF0CF512C27
:1005D0008091A401581608F05FC0052D10E0E0914D
:1005E000A101F091A201E00FF11F61E080810E9462
:1005F000A601E091A101F091A201E00FF11F60E0DE
:1006000080810E947401D501C401052C04C0880FAB
:10061000991FAA1FBB1F0A94D2F76C017C01E094BA
:10062000F094412C8091A3014816F8F4C42DD0E039
:10063000E0919F01F091A001EC0FFD1F80810E94CD
:1006400048012496CC0FDD1FC35CDE4F892B41F49B
:10065000888199818C299D29998388834394E2CF4D
:10066000888199818E219F21F7CFE091A101F0919E
:10067000A201E00FF11F61E080810E94740180916E
:10068000A1019091A201080F191F60E0F80180817B
:100690000E94A60153949CCF0DE311E0E8018F8DD9
:1006A00098A1892B31F41C8E8FEF9FEF9E8F8D8F39
:1006B00019A2269691E0C937D90789F7F12C8091C4
:1006C000A301F81608F053C0E12CCF2CD12CCC0C90
:1006D000DD1CF601EB5BFE4F6F012091A401E216D9
:1006E00008F043C0F601608171810E2C02C076953E
:1006F00067950A94E2F7F29E900111242E0D311DA8
:10070000EDE3F1E080E0458D568D2417350709F4BF
:10071000D3C08F5F36968A30B1F760FF24C0EDE317
:10072000F1E090E080E0448D411118C0E0919D011E
:10073000F0919E01E20FF31F408156E0589FF001B7
:10074000599FF00D1124E35CFE4F448F368F258FA7
:1007500010A2178E61E00E94AF0005C00196369688
:100760008A30910501F7E394B8CFF394A8CF80E0E5
:10077000F80191A19111892F0A5F1F4FC017D1076E
:10078000B9F79FB7F8944091390150913A016091BF
:100790003B0170913C019FBF4093990150939A0196
:1007A00060939B0170939C01882361F080915E01AE
:1007B000882341F080915C0190915D011091590175
:1007C000019719F01092A90110E0C9E2D1E00E8161
:1007D00060E08C810E94740160E0802F0E947401AF
:1007E000249685E391E08C179D0789F7112391F0FA
:1007F0002FEC210F233070F4809127019091280174
:10080000009779F4812F110F990BC09790932801CD
:10081000809327016114710409F4A2CE0E940000A4
:100820009FCE2230B9F31133D1F5880F991F880F6D
:10083000991FFC01E75DFE4FC28161E080810E944B
:10084000740160E08C2F0E9474010E94E6011B017C
:100850002C0188EEC82E83E0D82EE12CF12C0E94CA
:10086000E6016219730984099509683E73408105A0
:100870009105A8F391E0C91AD108E108F108E8EE62
:100880002E0EE3E03E1E411C511CC114D104E104B4
:10089000F10429F71092280110922701BBCF1233DF
:1008A000A1F6880F991F880F991FFC01E75DFE4F85
:1008B000C08161E08281C3CF61704DCF10923F0152
:1008C0001092430110924201109244018CE191E098
:1008D00090933E0180933D01E9E5F1E0108214829E
:1008E00013821582369681E0E539F807B9F784E07E
:1008F00091E09093A00180939F0180E091E090931C
:10090000A2018093A10184E08093A3018093A401BC
:1009100088E091E090939E0180939D018AE090E0B1
:100920009093A6018093A50124EF31E03093A801B4
:100930002093A7011092AB011092AA011092990185
:1009400010929A0110929B0110929C011092A901A1
:1009500010922A011092290110922C0110922B0161
:100960002BE030E030932E0120932D019093300145
:1009700080932F0189E090E09093320180933101C0
:1009800086E090E0909334018093330185E090E01D
:10099000909336018093350183E090E09093380185
:1009A000809337010895EE0FFF1F0590F491E02D1D
:1009B0000994F894FFCF020100070D0C04083738A2
:1009C000392F3435362A3132332D63303D2B000038
:0809D0000000E201A201710127
:107E0000112484B714BE81FFF0D085E080938100F7
:107E100082E08093C00088E18093C10086E0809377
:107E2000C20080E18093C4008EE0C9D0259A86E02C
:107E300020E33CEF91E0309385002093840096BBD3
:107E4000B09BFECF1D9AA8958150A9F7CC24DD24C4
:107E500088248394B5E0AB2EA1E19A2EF3E0BF2EE7
:107E6000A2D0813461F49FD0082FAFD0023811F036
:107E7000013811F484E001C083E08DD089C08234E0
:107E800011F484E103C0853419F485E0A6D080C0E4
:107E9000853579F488D0E82EFF2485D0082F10E0AE
:107EA000102F00270E291F29000F111F8ED06801E7
:107EB0006FC0863521F484E090D080E0DECF843638
:107EC00009F040C070D06FD0082F6DD080E0C81688
:107ED00080E7D80618F4F601B7BEE895C0E0D1E017
:107EE00062D089930C17E1F7F0E0CF16F0E7DF06D8
:107EF00018F0F601B7BEE89568D007B600FCFDCFD4
:107F0000A601A0E0B1E02C9130E011968C91119780
:107F100090E0982F8827822B932B1296FA010C0160
:107F200087BEE89511244E5F5F4FF1E0A038BF0790
:107F300051F7F601A7BEE89507B600FCFDCF97BE46
:107F4000E89526C08437B1F42ED02DD0F82E2BD052
:107F50003CD0F601EF2C8F010F5F1F4F84911BD097
:107F6000EA94F801C1F70894C11CD11CFA94CF0C13
:107F7000D11C0EC0853739F428D08EE10CD085E9AC
:107F80000AD08FE07ACF813511F488E018D01DD067
:107F900080E101D065CF982F8091C00085FFFCCF94
:107FA0009093C60008958091C00087FFFCCF809118
:107FB000C00084FD01C0A8958091C6000895E0E648
:107FC000F0E098E1908380830895EDDF803219F02E
:107FD00088E0F5DFFFCF84E1DECF1F93182FE3DFCA
:107FE0001150E9F7F2DF1F91089580E0E8DFEE27F6
:047FF000FF270994CA
:027FFE00040479
:00000001FF
